{
  "_format": "hh-sol-artifact-1",
  "contractName": "Nebulax",
  "sourceName": "contracts/Nebulax.sol",
  "abi": [
    {
      "inputs": [
        {
          "internalType": "address",
          "name": "initialOwner",
          "type": "address"
        }
      ],
      "stateMutability": "nonpayable",
      "type": "constructor"
    },
    {
      "inputs": [
        {
          "internalType": "address",
          "name": "owner",
          "type": "address"
        }
      ],
      "name": "OwnableInvalidOwner",
      "type": "error"
    },
    {
      "inputs": [
        {
          "internalType": "address",
          "name": "account",
          "type": "address"
        }
      ],
      "name": "OwnableUnauthorizedAccount",
      "type": "error"
    },
    {
      "anonymous": false,
      "inputs": [
        {
          "indexed": true,
          "internalType": "address",
          "name": "user",
          "type": "address"
        },
        {
          "indexed": false,
          "internalType": "uint256",
          "name": "amount",
          "type": "uint256"
        }
      ],
      "name": "Deposited",
      "type": "event"
    },
    {
      "anonymous": false,
      "inputs": [
        {
          "indexed": true,
          "internalType": "address",
          "name": "previousOwner",
          "type": "address"
        },
        {
          "indexed": true,
          "internalType": "address",
          "name": "newOwner",
          "type": "address"
        }
      ],
      "name": "OwnershipTransferred",
      "type": "event"
    },
    {
      "anonymous": false,
      "inputs": [
        {
          "indexed": true,
          "internalType": "address",
          "name": "user",
          "type": "address"
        },
        {
          "indexed": false,
          "internalType": "uint256",
          "name": "amount",
          "type": "uint256"
        }
      ],
      "name": "Reinvested",
      "type": "event"
    },
    {
      "anonymous": false,
      "inputs": [
        {
          "indexed": true,
          "internalType": "address",
          "name": "user",
          "type": "address"
        },
        {
          "indexed": false,
          "internalType": "uint256",
          "name": "amount",
          "type": "uint256"
        }
      ],
      "name": "Withdrawn",
      "type": "event"
    },
    {
      "inputs": [
        {
          "internalType": "uint256",
          "name": "amount",
          "type": "uint256"
        }
      ],
      "name": "deposit",
      "outputs": [],
      "stateMutability": "nonpayable",
      "type": "function"
    },
    {
      "inputs": [],
      "name": "owner",
      "outputs": [
        {
          "internalType": "address",
          "name": "",
          "type": "address"
        }
      ],
      "stateMutability": "view",
      "type": "function"
    },
    {
      "inputs": [],
      "name": "reinvest",
      "outputs": [],
      "stateMutability": "nonpayable",
      "type": "function"
    },
    {
      "inputs": [],
      "name": "renounceOwnership",
      "outputs": [],
      "stateMutability": "nonpayable",
      "type": "function"
    },
    {
      "inputs": [],
      "name": "rewardToken",
      "outputs": [
        {
          "internalType": "contract IERC20",
          "name": "",
          "type": "address"
        }
      ],
      "stateMutability": "view",
      "type": "function"
    },
    {
      "inputs": [
        {
          "internalType": "address",
          "name": "newOwner",
          "type": "address"
        }
      ],
      "name": "transferOwnership",
      "outputs": [],
      "stateMutability": "nonpayable",
      "type": "function"
    },
    {
      "inputs": [
        {
          "internalType": "address",
          "name": "",
          "type": "address"
        }
      ],
      "name": "users",
      "outputs": [
        {
          "internalType": "uint256",
          "name": "depositedAmount",
          "type": "uint256"
        },
        {
          "internalType": "uint256",
          "name": "rewardsEarned",
          "type": "uint256"
        },
        {
          "internalType": "uint256",
          "name": "lastDepositTime",
          "type": "uint256"
        }
      ],
      "stateMutability": "view",
      "type": "function"
    },
    {
      "inputs": [
        {
          "internalType": "uint256",
          "name": "amount",
          "type": "uint256"
        }
      ],
      "name": "withdraw",
      "outputs": [],
      "stateMutability": "nonpayable",
      "type": "function"
    },
    {
      "inputs": [],
      "name": "xdcToken",
      "outputs": [
        {
          "internalType": "contract IERC20",
          "name": "",
          "type": "address"
        }
      ],
      "stateMutability": "view",
      "type": "function"
    }
  ],
  "bytecode": "0x60806040523480156200001157600080fd5b5060405162001265380380620012658339818101604052810190620000379190620001f4565b80600073ffffffffffffffffffffffffffffffffffffffff168173ffffffffffffffffffffffffffffffffffffffff1603620000ad5760006040517f1e4fbdf7000000000000000000000000000000000000000000000000000000008152600401620000a4919062000237565b60405180910390fd5b620000be81620000c660201b60201c565b505062000254565b60008060009054906101000a900473ffffffffffffffffffffffffffffffffffffffff169050816000806101000a81548173ffffffffffffffffffffffffffffffffffffffff021916908373ffffffffffffffffffffffffffffffffffffffff1602179055508173ffffffffffffffffffffffffffffffffffffffff168173ffffffffffffffffffffffffffffffffffffffff167f8be0079c531659141344cd1fd0a4f28419497f9722a3daafe3b4186f6b6457e060405160405180910390a35050565b600080fd5b600073ffffffffffffffffffffffffffffffffffffffff82169050919050565b6000620001bc826200018f565b9050919050565b620001ce81620001af565b8114620001da57600080fd5b50565b600081519050620001ee81620001c3565b92915050565b6000602082840312156200020d576200020c6200018a565b5b60006200021d84828501620001dd565b91505092915050565b6200023181620001af565b82525050565b60006020820190506200024e600083018462000226565b92915050565b61100180620002646000396000f3fe608060405234801561001057600080fd5b50600436106100935760003560e01c8063a87430ba11610066578063a87430ba146100fa578063b6b55f251461012c578063f2fde38b14610148578063f7c618c114610164578063fdb5a03e1461018257610093565b806313ce25af146100985780632e1a7d4d146100b6578063715018a6146100d25780638da5cb5b146100dc575b600080fd5b6100a061018c565b6040516100ad9190610a93565b60405180910390f35b6100d060048036038101906100cb9190610ae9565b6101b2565b005b6100da6103d1565b005b6100e46103e5565b6040516100f19190610b37565b60405180910390f35b610114600480360381019061010f9190610b7e565b61040e565b60405161012393929190610bba565b60405180910390f35b61014660048036038101906101419190610ae9565b610438565b005b610162600480360381019061015d9190610b7e565b61061b565b005b61016c6106a1565b6040516101799190610a93565b60405180910390f35b61018a6106c7565b005b600160009054906101000a900473ffffffffffffffffffffffffffffffffffffffff1681565b600081116101f5576040517f08c379a00000000000000000000000000000000000000000000000000000000081526004016101ec90610c4e565b60405180910390fd5b6000600360003373ffffffffffffffffffffffffffffffffffffffff1673ffffffffffffffffffffffffffffffffffffffff1681526020019081526020016000209050818160000154101561027f576040517f08c379a000000000000000000000000000000000000000000000000000000000815260040161027690610cba565b60405180910390fd5b610288336107ce565b8181600001546102989190610d09565b8160000181905550600160009054906101000a900473ffffffffffffffffffffffffffffffffffffffff1673ffffffffffffffffffffffffffffffffffffffff1663a9059cbb33846040518363ffffffff1660e01b81526004016102fd929190610d3d565b6020604051808303816000875af115801561031c573d6000803e3d6000fd5b505050506040513d601f19601f820116820180604052508101906103409190610d9e565b61037f576040517f08c379a000000000000000000000000000000000000000000000000000000000815260040161037690610e17565b60405180910390fd5b3373ffffffffffffffffffffffffffffffffffffffff167f7084f5476618d8e60b11ef0d7d3f06914655adb8793e28ff7f018d4c76d505d5836040516103c59190610e37565b60405180910390a25050565b6103d96108c1565b6103e36000610948565b565b60008060009054906101000a900473ffffffffffffffffffffffffffffffffffffffff16905090565b60036020528060005260406000206000915090508060000154908060010154908060020154905083565b6000811161047b576040517f08c379a000000000000000000000000000000000000000000000000000000000815260040161047290610c4e565b60405180910390fd5b600160009054906101000a900473ffffffffffffffffffffffffffffffffffffffff1673ffffffffffffffffffffffffffffffffffffffff166323b872dd3330846040518463ffffffff1660e01b81526004016104da93929190610e52565b6020604051808303816000875af11580156104f9573d6000803e3d6000fd5b505050506040513d601f19601f8201168201806040525081019061051d9190610d9e565b61055c576040517f08c379a000000000000000000000000000000000000000000000000000000000815260040161055390610e17565b60405180910390fd5b6000600360003373ffffffffffffffffffffffffffffffffffffffff1673ffffffffffffffffffffffffffffffffffffffff16815260200190815260200160002090506105a8336107ce565b8181600001546105b89190610e89565b81600001819055504281600201819055503373ffffffffffffffffffffffffffffffffffffffff167f2da466a7b24304f47e87fa2e1e5a81b9831ce54fec19055ce277ca2f39ba42c48360405161060f9190610e37565b60405180910390a25050565b6106236108c1565b600073ffffffffffffffffffffffffffffffffffffffff168173ffffffffffffffffffffffffffffffffffffffff16036106955760006040517f1e4fbdf700000000000000000000000000000000000000000000000000000000815260040161068c9190610b37565b60405180910390fd5b61069e81610948565b50565b600260009054906101000a900473ffffffffffffffffffffffffffffffffffffffff1681565b6000600360003373ffffffffffffffffffffffffffffffffffffffff1673ffffffffffffffffffffffffffffffffffffffff16815260200190815260200160002090506000816001015411610751576040517f08c379a000000000000000000000000000000000000000000000000000000000815260040161074890610f09565b60405180910390fd5b600081600101549050600082600101819055508082600001546107749190610e89565b82600001819055503373ffffffffffffffffffffffffffffffffffffffff167f67c7aa1ef9dbf8081996d7391bf5dc8fb772decabf5ea08418509004fc4ca3e2826040516107c29190610e37565b60405180910390a25050565b6000600360008373ffffffffffffffffffffffffffffffffffffffff1673ffffffffffffffffffffffffffffffffffffffff168152602001908152602001600020905060008160020154426108239190610d09565b9050600082600001541180156108395750600081115b156108bc5760006005905060006301e13380670de0b6b3a76400008361085f9190610f29565b6108699190610f9a565b90506000670de0b6b3a7640000848387600001546108879190610f29565b6108919190610f29565b61089b9190610f9a565b90508460010154816108ad9190610e89565b90508085600101819055505050505b505050565b6108c9610a0c565b73ffffffffffffffffffffffffffffffffffffffff166108e76103e5565b73ffffffffffffffffffffffffffffffffffffffff16146109465761090a610a0c565b6040517f118cdaa700000000000000000000000000000000000000000000000000000000815260040161093d9190610b37565b60405180910390fd5b565b60008060009054906101000a900473ffffffffffffffffffffffffffffffffffffffff169050816000806101000a81548173ffffffffffffffffffffffffffffffffffffffff021916908373ffffffffffffffffffffffffffffffffffffffff1602179055508173ffffffffffffffffffffffffffffffffffffffff168173ffffffffffffffffffffffffffffffffffffffff167f8be0079c531659141344cd1fd0a4f28419497f9722a3daafe3b4186f6b6457e060405160405180910390a35050565b600033905090565b600073ffffffffffffffffffffffffffffffffffffffff82169050919050565b6000819050919050565b6000610a59610a54610a4f84610a14565b610a34565b610a14565b9050919050565b6000610a6b82610a3e565b9050919050565b6000610a7d82610a60565b9050919050565b610a8d81610a72565b82525050565b6000602082019050610aa86000830184610a84565b92915050565b600080fd5b6000819050919050565b610ac681610ab3565b8114610ad157600080fd5b50565b600081359050610ae381610abd565b92915050565b600060208284031215610aff57610afe610aae565b5b6000610b0d84828501610ad4565b91505092915050565b6000610b2182610a14565b9050919050565b610b3181610b16565b82525050565b6000602082019050610b4c6000830184610b28565b92915050565b610b5b81610b16565b8114610b6657600080fd5b50565b600081359050610b7881610b52565b92915050565b600060208284031215610b9457610b93610aae565b5b6000610ba284828501610b69565b91505092915050565b610bb481610ab3565b82525050565b6000606082019050610bcf6000830186610bab565b610bdc6020830185610bab565b610be96040830184610bab565b949350505050565b600082825260208201905092915050565b7f416d6f756e74206d7573742062652067726561746572207468616e2030000000600082015250565b6000610c38601d83610bf1565b9150610c4382610c02565b602082019050919050565b60006020820190508181036000830152610c6781610c2b565b9050919050565b7f496e73756666696369656e74206465706f736974656420616d6f756e74000000600082015250565b6000610ca4601d83610bf1565b9150610caf82610c6e565b602082019050919050565b60006020820190508181036000830152610cd381610c97565b9050919050565b7f4e487b7100000000000000000000000000000000000000000000000000000000600052601160045260246000fd5b6000610d1482610ab3565b9150610d1f83610ab3565b9250828203905081811115610d3757610d36610cda565b5b92915050565b6000604082019050610d526000830185610b28565b610d5f6020830184610bab565b9392505050565b60008115159050919050565b610d7b81610d66565b8114610d8657600080fd5b50565b600081519050610d9881610d72565b92915050565b600060208284031215610db457610db3610aae565b5b6000610dc284828501610d89565b91505092915050565b7f5472616e73666572206661696c65640000000000000000000000000000000000600082015250565b6000610e01600f83610bf1565b9150610e0c82610dcb565b602082019050919050565b60006020820190508181036000830152610e3081610df4565b9050919050565b6000602082019050610e4c6000830184610bab565b92915050565b6000606082019050610e676000830186610b28565b610e746020830185610b28565b610e816040830184610bab565b949350505050565b6000610e9482610ab3565b9150610e9f83610ab3565b9250828201905080821115610eb757610eb6610cda565b5b92915050565b7f4e6f207265776172647320746f207265696e7665737400000000000000000000600082015250565b6000610ef3601683610bf1565b9150610efe82610ebd565b602082019050919050565b60006020820190508181036000830152610f2281610ee6565b9050919050565b6000610f3482610ab3565b9150610f3f83610ab3565b9250828202610f4d81610ab3565b91508282048414831517610f6457610f63610cda565b5b5092915050565b7f4e487b7100000000000000000000000000000000000000000000000000000000600052601260045260246000fd5b6000610fa582610ab3565b9150610fb083610ab3565b925082610fc057610fbf610f6b565b5b82820490509291505056fea26469706673582212200df777d983f92997be1e355c03af8f0a5bcd31a5cc376dc91267a40e66d5833a64736f6c63430008140033",
  "linkReferences": {},
  "deployedLinkReferences": {}
}