{
  "_format": "hh-sol-artifact-1",
  "contractName": "Nebulax",
  "sourceName": "contracts/Nebulax.sol",
  "abi": [
    {
      "inputs": [
        {
          "internalType": "address",
          "name": "_token",
          "type": "address"
        },
        {
          "internalType": "address",
          "name": "_rewardToken",
          "type": "address"
        }
      ],
      "stateMutability": "nonpayable",
      "type": "constructor"
    },
    {
      "inputs": [
        {
          "internalType": "address",
          "name": "owner",
          "type": "address"
        }
      ],
      "name": "OwnableInvalidOwner",
      "type": "error"
    },
    {
      "inputs": [
        {
          "internalType": "address",
          "name": "account",
          "type": "address"
        }
      ],
      "name": "OwnableUnauthorizedAccount",
      "type": "error"
    },
    {
      "anonymous": false,
      "inputs": [
        {
          "indexed": true,
          "internalType": "address",
          "name": "previousOwner",
          "type": "address"
        },
        {
          "indexed": true,
          "internalType": "address",
          "name": "newOwner",
          "type": "address"
        }
      ],
      "name": "OwnershipTransferred",
      "type": "event"
    },
    {
      "anonymous": false,
      "inputs": [
        {
          "indexed": true,
          "internalType": "address",
          "name": "user",
          "type": "address"
        },
        {
          "indexed": false,
          "internalType": "uint256",
          "name": "amount",
          "type": "uint256"
        }
      ],
      "name": "RewardClaimed",
      "type": "event"
    },
    {
      "anonymous": false,
      "inputs": [
        {
          "indexed": true,
          "internalType": "address",
          "name": "user",
          "type": "address"
        },
        {
          "indexed": false,
          "internalType": "uint256",
          "name": "amount",
          "type": "uint256"
        }
      ],
      "name": "Staked",
      "type": "event"
    },
    {
      "anonymous": false,
      "inputs": [
        {
          "indexed": true,
          "internalType": "address",
          "name": "user",
          "type": "address"
        },
        {
          "indexed": false,
          "internalType": "uint256",
          "name": "amount",
          "type": "uint256"
        }
      ],
      "name": "Withdrawn",
      "type": "event"
    },
    {
      "inputs": [],
      "name": "claimRewards",
      "outputs": [],
      "stateMutability": "nonpayable",
      "type": "function"
    },
    {
      "inputs": [],
      "name": "distributeRewards",
      "outputs": [],
      "stateMutability": "nonpayable",
      "type": "function"
    },
    {
      "inputs": [],
      "name": "initialRewardRate",
      "outputs": [
        {
          "internalType": "uint256",
          "name": "",
          "type": "uint256"
        }
      ],
      "stateMutability": "view",
      "type": "function"
    },
    {
      "inputs": [
        {
          "internalType": "address",
          "name": "",
          "type": "address"
        }
      ],
      "name": "lastUpdateTime",
      "outputs": [
        {
          "internalType": "uint256",
          "name": "",
          "type": "uint256"
        }
      ],
      "stateMutability": "view",
      "type": "function"
    },
    {
      "inputs": [],
      "name": "maxRewardRate",
      "outputs": [
        {
          "internalType": "uint256",
          "name": "",
          "type": "uint256"
        }
      ],
      "stateMutability": "view",
      "type": "function"
    },
    {
      "inputs": [],
      "name": "maxTotalStakedForMultiplier",
      "outputs": [
        {
          "internalType": "uint256",
          "name": "",
          "type": "uint256"
        }
      ],
      "stateMutability": "view",
      "type": "function"
    },
    {
      "inputs": [],
      "name": "owner",
      "outputs": [
        {
          "internalType": "address",
          "name": "",
          "type": "address"
        }
      ],
      "stateMutability": "view",
      "type": "function"
    },
    {
      "inputs": [],
      "name": "renounceOwnership",
      "outputs": [],
      "stateMutability": "nonpayable",
      "type": "function"
    },
    {
      "inputs": [],
      "name": "rewardMultiplier",
      "outputs": [
        {
          "internalType": "uint256",
          "name": "",
          "type": "uint256"
        }
      ],
      "stateMutability": "view",
      "type": "function"
    },
    {
      "inputs": [],
      "name": "rewardRate",
      "outputs": [
        {
          "internalType": "uint256",
          "name": "",
          "type": "uint256"
        }
      ],
      "stateMutability": "view",
      "type": "function"
    },
    {
      "inputs": [],
      "name": "rewardToken",
      "outputs": [
        {
          "internalType": "contract IERC20",
          "name": "",
          "type": "address"
        }
      ],
      "stateMutability": "view",
      "type": "function"
    },
    {
      "inputs": [
        {
          "internalType": "address",
          "name": "",
          "type": "address"
        }
      ],
      "name": "rewards",
      "outputs": [
        {
          "internalType": "uint256",
          "name": "",
          "type": "uint256"
        }
      ],
      "stateMutability": "view",
      "type": "function"
    },
    {
      "inputs": [
        {
          "internalType": "uint256",
          "name": "amount",
          "type": "uint256"
        }
      ],
      "name": "stake",
      "outputs": [],
      "stateMutability": "nonpayable",
      "type": "function"
    },
    {
      "inputs": [
        {
          "internalType": "address",
          "name": "",
          "type": "address"
        }
      ],
      "name": "stakedBalances",
      "outputs": [
        {
          "internalType": "uint256",
          "name": "",
          "type": "uint256"
        }
      ],
      "stateMutability": "view",
      "type": "function"
    },
    {
      "inputs": [],
      "name": "token",
      "outputs": [
        {
          "internalType": "contract IERC20",
          "name": "",
          "type": "address"
        }
      ],
      "stateMutability": "view",
      "type": "function"
    },
    {
      "inputs": [],
      "name": "totalStaked",
      "outputs": [
        {
          "internalType": "uint256",
          "name": "",
          "type": "uint256"
        }
      ],
      "stateMutability": "view",
      "type": "function"
    },
    {
      "inputs": [
        {
          "internalType": "address",
          "name": "newOwner",
          "type": "address"
        }
      ],
      "name": "transferOwnership",
      "outputs": [],
      "stateMutability": "nonpayable",
      "type": "function"
    },
    {
      "inputs": [
        {
          "internalType": "uint256",
          "name": "amount",
          "type": "uint256"
        }
      ],
      "name": "withdraw",
      "outputs": [],
      "stateMutability": "nonpayable",
      "type": "function"
    }
  ],
  "bytecode": "0x608060405260016004556001600855600a6009556001600a5568056bc75e2d63100000600b553480156200003257600080fd5b506040516200187938038062001879833981810160405281019062000058919062000298565b33600073ffffffffffffffffffffffffffffffffffffffff168173ffffffffffffffffffffffffffffffffffffffff1603620000ce5760006040517f1e4fbdf7000000000000000000000000000000000000000000000000000000008152600401620000c59190620002f0565b60405180910390fd5b620000df816200016a60201b60201c565b5081600160006101000a81548173ffffffffffffffffffffffffffffffffffffffff021916908373ffffffffffffffffffffffffffffffffffffffff16021790555080600260006101000a81548173ffffffffffffffffffffffffffffffffffffffff021916908373ffffffffffffffffffffffffffffffffffffffff16021790555050506200030d565b60008060009054906101000a900473ffffffffffffffffffffffffffffffffffffffff169050816000806101000a81548173ffffffffffffffffffffffffffffffffffffffff021916908373ffffffffffffffffffffffffffffffffffffffff1602179055508173ffffffffffffffffffffffffffffffffffffffff168173ffffffffffffffffffffffffffffffffffffffff167f8be0079c531659141344cd1fd0a4f28419497f9722a3daafe3b4186f6b6457e060405160405180910390a35050565b600080fd5b600073ffffffffffffffffffffffffffffffffffffffff82169050919050565b6000620002608262000233565b9050919050565b620002728162000253565b81146200027e57600080fd5b50565b600081519050620002928162000267565b92915050565b60008060408385031215620002b257620002b16200022e565b5b6000620002c28582860162000281565b9250506020620002d58582860162000281565b9150509250929050565b620002ea8162000253565b82525050565b6000602082019050620003076000830184620002df565b92915050565b61155c806200031d6000396000f3fe608060405234801561001057600080fd5b50600436106101165760003560e01c80636f4a2cd0116100a25780638da5cb5b116100715780638da5cb5b14610299578063a694fc3a146102b7578063f2fde38b146102d3578063f7c618c1146102ef578063fc0c546a1461030d57610116565b80636f4a2cd014610249578063715018a6146102535780637b0a47ee1461025d578063817b1cd21461027b57610116565b80632e1a7d4d116100e95780632e1a7d4d146101c9578063372500ab146101e55780635971aa21146101ef578063690a5b3a1461020d5780636f2c590a1461022b57610116565b80630700037d1461011b5780630d40ffc71461014b5780631460fa87146101695780632ce9aead14610199575b600080fd5b61013560048036038101906101309190610f9d565b61032b565b6040516101429190610fe3565b60405180910390f35b610153610343565b6040516101609190610fe3565b60405180910390f35b610183600480360381019061017e9190610f9d565b610349565b6040516101909190610fe3565b60405180910390f35b6101b360048036038101906101ae9190610f9d565b610361565b6040516101c09190610fe3565b60405180910390f35b6101e360048036038101906101de919061102a565b610379565b005b6101ed6105a3565b005b6101f76107a8565b6040516102049190610fe3565b60405180910390f35b6102156107ae565b6040516102229190610fe3565b60405180910390f35b6102336107b4565b6040516102409190610fe3565b60405180910390f35b6102516107ba565b005b61025b61091b565b005b61026561092f565b6040516102729190610fe3565b60405180910390f35b610283610935565b6040516102909190610fe3565b60405180910390f35b6102a161093b565b6040516102ae9190611066565b60405180910390f35b6102d160048036038101906102cc919061102a565b610964565b005b6102ed60048036038101906102e89190610f9d565b610ba8565b005b6102f7610c2e565b60405161030491906110e0565b60405180910390f35b610315610c54565b60405161032291906110e0565b60405180910390f35b60066020528060005260406000206000915090505481565b60095481565b60056020528060005260406000206000915090505481565b60076020528060005260406000206000915090505481565b80600560003373ffffffffffffffffffffffffffffffffffffffff1673ffffffffffffffffffffffffffffffffffffffff1681526020019081526020016000205410156103fb576040517f08c379a00000000000000000000000000000000000000000000000000000000081526004016103f290611158565b60405180910390fd5b61040433610c7a565b80600560003373ffffffffffffffffffffffffffffffffffffffff1673ffffffffffffffffffffffffffffffffffffffff168152602001908152602001600020600082825461045391906111a7565b92505081905550806003600082825461046c91906111a7565b92505081905550600160009054906101000a900473ffffffffffffffffffffffffffffffffffffffff1673ffffffffffffffffffffffffffffffffffffffff1663a9059cbb33836040518363ffffffff1660e01b81526004016104d09291906111db565b6020604051808303816000875af11580156104ef573d6000803e3d6000fd5b505050506040513d601f19601f82011682018060405250810190610513919061123c565b610552576040517f08c379a0000000000000000000000000000000000000000000000000000000008152600401610549906112b5565b60405180910390fd5b3373ffffffffffffffffffffffffffffffffffffffff167f7084f5476618d8e60b11ef0d7d3f06914655adb8793e28ff7f018d4c76d505d5826040516105989190610fe3565b60405180910390a250565b6105ac33610c7a565b6000600660003373ffffffffffffffffffffffffffffffffffffffff1673ffffffffffffffffffffffffffffffffffffffff16815260200190815260200160002054905060008111610633576040517f08c379a000000000000000000000000000000000000000000000000000000000815260040161062a90611321565b60405180910390fd5b6000600660003373ffffffffffffffffffffffffffffffffffffffff1673ffffffffffffffffffffffffffffffffffffffff16815260200190815260200160002081905550600260009054906101000a900473ffffffffffffffffffffffffffffffffffffffff1673ffffffffffffffffffffffffffffffffffffffff1663a9059cbb33836040518363ffffffff1660e01b81526004016106d59291906111db565b6020604051808303816000875af11580156106f4573d6000803e3d6000fd5b505050506040513d601f19601f82011682018060405250810190610718919061123c565b610757576040517f08c379a000000000000000000000000000000000000000000000000000000000815260040161074e9061138d565b60405180910390fd5b3373ffffffffffffffffffffffffffffffffffffffff167f106f923f993c2149d49b4255ff723acafa1f2d94393f561d3eda32ae348f72418260405161079d9190610fe3565b60405180910390a250565b60085481565b600b5481565b600a5481565b6107c2610de7565b60004290506000600760003373ffffffffffffffffffffffffffffffffffffffff1673ffffffffffffffffffffffffffffffffffffffff168152602001908152602001600020548261081491906111a7565b9050600081111561091757600081600454600560003373ffffffffffffffffffffffffffffffffffffffff1673ffffffffffffffffffffffffffffffffffffffff1681526020019081526020016000205461086f91906113ad565b61087991906113ad565b905080600660003373ffffffffffffffffffffffffffffffffffffffff1673ffffffffffffffffffffffffffffffffffffffff16815260200190815260200160002060008282546108ca91906113ef565b9250508190555082600760003373ffffffffffffffffffffffffffffffffffffffff1673ffffffffffffffffffffffffffffffffffffffff16815260200190815260200160002081905550505b5050565b610923610de7565b61092d6000610e6e565b565b60045481565b60035481565b60008060009054906101000a900473ffffffffffffffffffffffffffffffffffffffff16905090565b600081116109a7576040517f08c379a000000000000000000000000000000000000000000000000000000000815260040161099e9061146f565b60405180910390fd5b600160009054906101000a900473ffffffffffffffffffffffffffffffffffffffff1673ffffffffffffffffffffffffffffffffffffffff166323b872dd3330846040518463ffffffff1660e01b8152600401610a069392919061148f565b6020604051808303816000875af1158015610a25573d6000803e3d6000fd5b505050506040513d601f19601f82011682018060405250810190610a49919061123c565b610a88576040517f08c379a0000000000000000000000000000000000000000000000000000000008152600401610a7f906112b5565b60405180910390fd5b610a9133610c7a565b80600560003373ffffffffffffffffffffffffffffffffffffffff1673ffffffffffffffffffffffffffffffffffffffff1681526020019081526020016000206000828254610ae091906113ef565b925050819055508060036000828254610af991906113ef565b92505081905550600b5460035410610b1957600954600a81905550610b57565b600b54600854600954610b2c91906111a7565b600354610b3991906113ad565b610b4391906114f5565b600854610b5091906113ef565b600a819055505b3373ffffffffffffffffffffffffffffffffffffffff167f9e71bc8eea02a63969f509818f2dafb9254532904319f9dbda79b67bd34a5f3d82604051610b9d9190610fe3565b60405180910390a250565b610bb0610de7565b600073ffffffffffffffffffffffffffffffffffffffff168173ffffffffffffffffffffffffffffffffffffffff1603610c225760006040517f1e4fbdf7000000000000000000000000000000000000000000000000000000008152600401610c199190611066565b60405180910390fd5b610c2b81610e6e565b50565b600260009054906101000a900473ffffffffffffffffffffffffffffffffffffffff1681565b600160009054906101000a900473ffffffffffffffffffffffffffffffffffffffff1681565b60004290506000600760008473ffffffffffffffffffffffffffffffffffffffff1673ffffffffffffffffffffffffffffffffffffffff1681526020019081526020016000205482610ccc91906111a7565b90506000811115610de2576000670de0b6b3a764000082600a54600560008873ffffffffffffffffffffffffffffffffffffffff1673ffffffffffffffffffffffffffffffffffffffff16815260200190815260200160002054610d3091906113ad565b610d3a91906113ad565b610d4491906114f5565b905080600660008673ffffffffffffffffffffffffffffffffffffffff1673ffffffffffffffffffffffffffffffffffffffff1681526020019081526020016000206000828254610d9591906113ef565b9250508190555082600760008673ffffffffffffffffffffffffffffffffffffffff1673ffffffffffffffffffffffffffffffffffffffff16815260200190815260200160002081905550505b505050565b610def610f32565b73ffffffffffffffffffffffffffffffffffffffff16610e0d61093b565b73ffffffffffffffffffffffffffffffffffffffff1614610e6c57610e30610f32565b6040517f118cdaa7000000000000000000000000000000000000000000000000000000008152600401610e639190611066565b60405180910390fd5b565b60008060009054906101000a900473ffffffffffffffffffffffffffffffffffffffff169050816000806101000a81548173ffffffffffffffffffffffffffffffffffffffff021916908373ffffffffffffffffffffffffffffffffffffffff1602179055508173ffffffffffffffffffffffffffffffffffffffff168173ffffffffffffffffffffffffffffffffffffffff167f8be0079c531659141344cd1fd0a4f28419497f9722a3daafe3b4186f6b6457e060405160405180910390a35050565b600033905090565b600080fd5b600073ffffffffffffffffffffffffffffffffffffffff82169050919050565b6000610f6a82610f3f565b9050919050565b610f7a81610f5f565b8114610f8557600080fd5b50565b600081359050610f9781610f71565b92915050565b600060208284031215610fb357610fb2610f3a565b5b6000610fc184828501610f88565b91505092915050565b6000819050919050565b610fdd81610fca565b82525050565b6000602082019050610ff86000830184610fd4565b92915050565b61100781610fca565b811461101257600080fd5b50565b60008135905061102481610ffe565b92915050565b6000602082840312156110405761103f610f3a565b5b600061104e84828501611015565b91505092915050565b61106081610f5f565b82525050565b600060208201905061107b6000830184611057565b92915050565b6000819050919050565b60006110a66110a161109c84610f3f565b611081565b610f3f565b9050919050565b60006110b88261108b565b9050919050565b60006110ca826110ad565b9050919050565b6110da816110bf565b82525050565b60006020820190506110f560008301846110d1565b92915050565b600082825260208201905092915050565b7f496e73756666696369656e74207374616b656420616d6f756e74000000000000600082015250565b6000611142601a836110fb565b915061114d8261110c565b602082019050919050565b6000602082019050818103600083015261117181611135565b9050919050565b7f4e487b7100000000000000000000000000000000000000000000000000000000600052601160045260246000fd5b60006111b282610fca565b91506111bd83610fca565b92508282039050818111156111d5576111d4611178565b5b92915050565b60006040820190506111f06000830185611057565b6111fd6020830184610fd4565b9392505050565b60008115159050919050565b61121981611204565b811461122457600080fd5b50565b60008151905061123681611210565b92915050565b60006020828403121561125257611251610f3a565b5b600061126084828501611227565b91505092915050565b7f5472616e73666572206661696c65640000000000000000000000000000000000600082015250565b600061129f600f836110fb565b91506112aa82611269565b602082019050919050565b600060208201905081810360008301526112ce81611292565b9050919050565b7f4e6f207265776172647320746f20636c61696d00000000000000000000000000600082015250565b600061130b6013836110fb565b9150611316826112d5565b602082019050919050565b6000602082019050818103600083015261133a816112fe565b9050919050565b7f526577617264207472616e73666572206661696c656400000000000000000000600082015250565b60006113776016836110fb565b915061138282611341565b602082019050919050565b600060208201905081810360008301526113a68161136a565b9050919050565b60006113b882610fca565b91506113c383610fca565b92508282026113d181610fca565b915082820484148315176113e8576113e7611178565b5b5092915050565b60006113fa82610fca565b915061140583610fca565b925082820190508082111561141d5761141c611178565b5b92915050565b7f416d6f756e74206d7573742062652067726561746572207468616e2030000000600082015250565b6000611459601d836110fb565b915061146482611423565b602082019050919050565b600060208201905081810360008301526114888161144c565b9050919050565b60006060820190506114a46000830186611057565b6114b16020830185611057565b6114be6040830184610fd4565b949350505050565b7f4e487b7100000000000000000000000000000000000000000000000000000000600052601260045260246000fd5b600061150082610fca565b915061150b83610fca565b92508261151b5761151a6114c6565b5b82820490509291505056fea2646970667358221220788b1c968dc9b3cde17aa3d6eb75792858cd2e3f7877f1a5526bc743788d027c64736f6c63430008140033",
  "linkReferences": {},
  "deployedLinkReferences": {}
}